:030000000202DD1C
:10000300C0E0C0D0C000C001C002E4F538F539F546
:100013003AF53BF53C7A20E533A2E779047830E6FC
:1000230033F608D9FA79057838E636D4F608D9F9DB
:10003300DAE5D002D001D000D0D0D0E022C0E0C0B9
:10004300D0C000C001C002E4F538F539F53AF53BFC
:10005300F53C7A20E533A2E779047830E633F608F5
:10006300D9FA79057838C0D0E6243320E70224D0C2
:1000730020E30224FDD0D033F608D9EADAD6D00241
:10008300D001D000D0D0D0E022C0E0C0D0C000C0AA
:1000930001C0027A207905C3783CE613C0D030E76B
:1000A3000224D030E30224FDF618D0D0D9EC790431
:1000B3007833E613F618D9FADADBD002D001D00090
:1000C300D0D0D0E022C0E0C0D0E5302534F530E513
:1000D300313535F531E5323536F532E5333537F53A
:1000E30033D0D0D0E022C0E0C0D0C3E5309534F5A2
:1000F30030E5319535F531E5329536F532E5339511
:1001030037F533D0D0D0E022C0E0C0D0C3E530957E
:1001130034E5319535E5329536E53395379200D0A0
:10012300D0D0E022C0E0C0D0C3E5349530E53595AA
:1001330031E5369532E53795339200D0D0D0E022C1
:10014300C0E0C0D0C200C3E53495307014E53595E6
:1001530031700EE53695327008E53795337002D26B
:1001630000D0D0D0E0221201432000030201272255
:1001730012014320000302010B22C0E0C0F0C0D0F3
:10018300C000C001C002C003E5308534F0A4F8A963
:10019300F0E5318534F0A429F9E435F0FAE530854A
:1001A30035F0A429F9E5F03AFAE433FBE532853476
:1001B300F0A42AFAE5F03BFBE5318535F0A42AFAF1
:1001C300E5F03BFBE5308536F0A42AFAE5F03BFB8E
:1001D300E5338534F0A42BFBE5328535F0A42BFB06
:1001E300E5318536F0A42BFBE5308537F0A42BFBF6
:1001F3008B338A3289318830D003D002D001D000CA
:10020300D0D0D0F0D0E022C0E0C0D0C000C001C048
:1002130002C003C0047C20E4F8F9FAFBC3E53033E1
:10022300F530E53133F531E53233F532E53333F586
:1002330033E833F8E933F9EA33FAEB33FBC3E895F0
:1002430034E99535EA9536EB95374013E89534F85C
:10025300E99535F9EA9536FAEB9537FB433001DC3E
:10026300BBD004D003D002D001D000D0D0D0E02244
:1002730085303485313585323685333722E530C5CF
:1002830034F530E531C535F531E532C536F532E5BE
:0602930033C537F53322EC
:10029900C0F9A4B0999282F880908883900299E578
:1002A9003AC4540F93F58FE53A540F93F58EE53917
:1002B900C4540F93F594E539540F93F593E538C475
:1002C900540F93F592E538540F93F5912220F9FDD7
:1002D90030F9FD2275817FE4F5E8F59575307B7578
:1002E90031007532007533007534D775351175369F
:1002F9000075370012017D1200031202A51202D601
:100309007530647531007532007533007534D775F1
:10031900351175360075370012017D12000312027E
:10032900A51202D675304D753192753208753300B4
:1003390075347B75350075360075370012020A125F
:1003490000031202A51202D67530D2753104753236
:10035900007533007534D77535117536007537005A
:100369001200C81200031202A51202D67530D77501
:1003790031117532007533007534D275350475360F
:10038900007537001200E91200031202A51202D605
:100399007530E87531007532007533007534E875CC
:1003A900350075360075370012017D753463753572
:1003B9000175360075370012017D75347175350088
:1003C90075360075370012020A1200031202A512CF
:0503D90002D60202E55E
:00000001FF
