:030000000200AA51
:10000300C0F9A4B0999282F88090900003E530542F
:100013000F93F591E530C4540F93F592E531540FE6
:1000230093F593E531C4540F93F594E532540F934C
:10003300F58EE532C4540F93F58F227804C3E5306F
:1000430033F530E53133F531E53233F532E533332A
:10005300F533E53433F534D8E4EF4530F530E4F5E2
:100063003422781E794A7AFADAFED9FAD8F622AC23
:10007300E8E5955403FDEC4D602B120065E5E8C3FC
:100083009C7022E5955403C39D701A7F10C3EC3313
:10009300FCED33FD4004DFF5800B1FD3E5E870FC76
:1000A300E59570FC22C32275817FE4F5E8F595F5AB
:1000B30030F531F532F533F53412000D120072507C
:0A00C300FB12003E12000D0200BF08
:00000001FF
