:10000000020078758F0E758E4175944675930A754A
:10001000927F75917F22758F46758E0C7594487509
:10002000933075927975912422758F7F758E7F75C7
:10003000947F75937F75927F75917F227AB479FA58
:1000400078FAD8FED9FADAF62212003CAC91859201
:1000500091859392859493858E94858F8E8C8F75E0
:100060008F0E12003C758E4112003C7594461200B2
:100070003C75930A12003C2275817F75E8007595E6
:100080000012002912005F12003C12001612003C00
:0200900080EFFF
:00000001FF
