:1000000002018E758F78758E1975947975931075B8
:10001000927975912422758F79758E107594797502
:10002000932475921975910022758F09758E067546
:10003000944775934775924075917F22758F4675E9
:100040008E0C75944875933075927975912422754C
:100050008F7F758E7F75947F75937F75927F759175
:100060007F227AB479FA78FAD8FED9FADAF622122F
:100070000003020197758F7F758E7F75947F75934E
:100080007F759219759100020197120062AC8F85FD
:100090008E8F85948E8593948592938591928C9181
:1000A00030FB6380E5120062AC918592918593925A
:1000B000859493858E94858F8E8C8F30FB4880E558
:1000C00012004F12001612006212004F120062302E
:1000D000FB3480EC12004F758F78120062758E1918
:1000E00012006275947912006275931012006275A5
:1000F000927912006275912412006212004F120070
:100100006230FB0280CE02019712004F12002912CA
:10011000006212004F12006212000312006212000D
:100120004F12006212003C12006212004F12006275
:1001300030FBD380D412004F759124759279120050
:1001400062759310759479120062758E19758F78A7
:1001500012006212004F120062758F78758E1912AC
:100160000062759479759310120062759279759199
:100170002412006212004F12006230FB8980B60226
:10018000006F0200750200C0E5E87B01800E7581FA
:100190007F75E80075950030FBEE80FBB40003022C
:1001A000017FB4010280DBB4020612000302008A60
:1001B000B403061200030200A5B404030200C0B495
:1001C00005030200D4B40603020109B407030201C7
:0101D00035F9
:00000001FF
