:1000000002017D758F78758E1975947975931075C9
:10001000927975912422758F79758E107594797502
:10002000932475921975910022758F09758E067546
:10003000944775934775924075917F22758F4675E9
:100040008E0C75944875933075927975912422754C
:100050008F7F758E7F75947F75937F75927F759175
:100060007F227AB479FA78FAD8FED9FADAF630FB38
:100070005D22120003020186758F7F758E7F759455
:100080007F75937F75921975910002018612006247
:10009000AB8F858E8F85948E859394859293859171
:1000A000928B9180E8120062AB9185929185939238
:1000B000859493858E94858F8E8B8F80E812004F68
:1000C00012001612006212004F12006280EF02014D
:1000D0008612004F758F78120062758E19120062B9
:1000E00075947912006275931012006275927912FC
:1000F000006275912412006212004F12006280D1DA
:1001000012004F12002912006212004F12006212F8
:10011000000312006212004F12006212003C120033
:100120006212004F12006280D712004F7591247541
:100130009279120062759310759479120062758E2F
:1001400019758F7812006212004F120062758F7855
:10015000758E19120062759479759310120062758C
:10016000927975912412006212004F12006280B9D8
:100170000200720200780200BDE5E8800E75817F02
:1001800075E80075950030FBF080FBB400030201B8
:1001900070B4010280DDB4020612000302008DB4C7
:1001A00003061200030200A5B404030200BDB40557
:1001B000030200D1B40603020100B40703020129BF
:00000001FF
