:10000000020190758F78758E1975947975931075B6
:10001000927975912422758F79758E107594797502
:10002000932475921975910022758F09758E067546
:10003000944775934775924075917F22758F4675E9
:100040008E0C75944875933075927975912422754C
:100050008F7F758E7F75947F75937F75927F759175
:100060007F2220EB107AB479FA78FAD8FED9FADA3E
:10007000F630FB6D227A5A79FA78FAD8FED9FADA94
:10008000F630FB5D22120003020199758F7F758E99
:100090007F75947F75937F75921975910002019910
:1000A000120062AB8F858E8F85948E859394859296
:1000B000938591928B9180E8120062AB9185929129
:1000C000859392859493858E94858F8E8B8F80E80F
:1000D00012004F12001612006212004F12006280CE
:1000E000EF02019912004F758F78120062758E1918
:1000F0001200627594791200627593101200627595
:10010000927912006275912412006212004F12005F
:100110006280D112004F12002912006212004F12A9
:10012000006212000312006212004F1200621200FD
:100130003C12006212004F12006280D712004F750D
:10014000912475927912006275931075947912005A
:1001500062758E19758F7812006212004F1200625C
:10016000758F78758E1912006275947975931012D7
:10017000006275927975912412006212004F12008C
:100180006280B902008502008B0200D0E5E8800E93
:1001900075817F75E80075950030FBF080FBB40039
:1001A00003020183B4010280DDB4020612000302DF
:1001B00000A0B403061200030200B8B40403020056
:1001C000D0B405030200E4B40603020113B407032C
:0301D00002013CED
:00000001FF
